# This is a comment
:020000020000FC
:1000C00000910003003009F40CD0009100030130CE
:1000D00009F410D000910003023009F412D00F91FE
:1000E0000895209201005098519852985398429840
:1000F000439A0895429A439A509851985298539827
:100000000C943E0018950000189500000C94840094
:10001000189500001895000018950000189500002C
:10002000189500001895000018950000189500001C
:10003000189500001895000018950000189500000C
# Emptyline ahead

:1000400018950000189500001895000018950000FC
:100050000C94A80018950000189500001895000051
:1000600018950000189500001895000018950000DC
:1000700018950000189500001895000022240FEF35
:100080000DBF08E00EBFA0E0B1E02D92B930E8F35B # Trailing comment
:100090000FEF02B90FE705B90FEF08B90CEC0BB978
:1000A00000E001B900EB04B90CE007B900EC0AB9B3
:1000B0000E9492000E949B007894A895FECF0F9317
:100100000895429A519A0895FFB60F9303B104706F
:1001100011F401E001C000E0009300030F91CFDF74
:10012000FFBE1895009169000F7D00610093690082
:10013000EA9AC5DF089510E01093C00018E9109303
:10014000C1001EE01093C20010E11093C400089596
:10015000FFB63091C600323031F4109100031030F8
:0E01600011F45F98ACDF3093C600FFBE189517
:00000001FF
